:046800000C940038BC
:1068100084B7877F84BF0FB6F894A89580916000F5
:10682000886180936000109260000FBE90E080E865
:106830000FB6F89480936100909361000FBEC1E0A1
:10684000C5BF82E085BF12D7C0936F0083E08093FD
:106850008100789480910001882339F081E091E0F3
:106860000E94D63D0E945F3DF5CF8091800291E06D
:10687000980F909380028F3F89F78FEC97E00197F4
:10688000F1F700C000008091E00081608093E0009B
:1068900082E49CED90938C0280938B029CE088E1D3
:1068A0000FB6F894A895809360000FBE9093600097
:1068B000FFCF0895089581E091E00C94B93D81E007
:1068C00091E00C94783D81D010928002089591302F
:1068D00039F0923051F480E290E02CEE31E009C0C2
:1068E00082E190E02CE032E004C080E090E020E023
:1068F00030E0FA01318320830895611520E77207A3
:106900008105910558F4AB01BC014F7755276627E7
:10691000772781E0452B462B472B09F080E08170DB
:106920000895BF92CF92DF92EF92FF920F931F9341
:10693000CF93DF93EC01E8A0FF8C0BA11AA126E511
:10694000E216F10468F080913C01807F85608093BD
:106950003C0181E2809346011092470180E02BC008
:10696000B62E6701C6018E199F098017910750F452
:10697000C601BB2011F0F7D101C02FD13FEFC31AE0
:10698000D30AF0CFC801A0E0B0E029E0880F991F3A
:10699000AA1FBB1F2A95D1F74C895D896E897F8913
:1069A0008A019B01081B190B2A0B3B0B0C8B1D8BBF
:1069B0002E8B3F8B81E0DF91CF911F910F91FF9044
:1069C000EF90DF90CF90BF900895EF92FF920F93DA
:1069D0001F93CF93DF93EC018B8D8F31A0F48D311A
:1069E00008F0BAC08231E1F138F4882309F4B4C068
:1069F000833009F466C0B5C08A3109F48CC08B318C
:106A000009F4A2C0AEC0883209F47FC010F5853207
:106A100009F0A7C01092F1001092F1001092F1005D
:106A200085E58093F1001092F1001092F10082E070
:106A30008093F1001092F1008091E8008E778093AE
:106A4000E8008C899D89AE89BF890897A109B109A1
:106A500076C08A3209F457C08F3209F47DC081C0F4
:106A60000F8D1E8D8C8D837019F48D8D882341F0D0
:106A700080913C01807F856080933C0184E278C0F6
:106A800078010532110518F084E2E82EF12C40E07F
:106A900050E0B7018EE192E020D460E070E0C801E0
:106AA0008E199F09E6D38091E8008E778093E800E5
:106AB0008C899D89AE89BF898E199F09A109B10969
:106AC0003EC01F8D012F133108F002E1E02EF12CA2
:106AD00040E050E0B7018AE391E0FFD3812F90E0DE
:106AE00060E070E08E199F09C4D38091E8008E7732
:106AF0008093E8008C899D89AE89BF89801B9109AC
:106B0000A109B1091CC060E001C061E0CE0109DF4C
:106B1000882391F133C01092F1001092F10010928D
:106B2000F1001092F1008091E8008E778093E800E8
:106B30008C899D89AE89BF890497A109B1098C8B85
:106B40009D8BAE8BBF8B1AC08F8D837091E082308E
:106B500009F490E0909300011C8A1D8A1E8A1F8A06
:106B60000DC080913C01807F856080933C0180E274
:106B7000809346011092470180E00AC080913C0159
:106B8000807F80933C01109246011092470181E082
:106B9000DF91CF911F910F91FF90EF9008959B018E
:106BA00036952795260FE22FF0E0E80FF91F60FFDA
:106BB0000EC080818F70942F9295907F892B808357
:106BC00084E0569547958A95E1F74183089540837F
:106BD000842F807F852B818308954F925F926F92DF
:106BE0007F928F929F92AF92BF92CF92DF92EF925D
:106BF000FF920F931F93CF93DF93CDB7DEB7D250A1
:106C00000FB6F894DEBF0FBECDBF8C0140E050E060
:106C100060E072E0CE010196A9D38091E8008B7705
:106C20008093E8000330110508F486C00330110595
:106C300051F480EAFE013196ACE4B1E001900D928E
:106C40008A95E1F779C08091A6019091A7018150C2
:106C5000904C880F991F880F991F0817190778F40F
:106C60008091E6019091E7018150904C880F991F27
:106C7000880F991F0817190708F040C05DC09C01D4
:106C80002D5C3F4F2017310758F34801881A990AA5
:106C9000982C8824990CCE0101967C0154019EEF1A
:106CA000B91A2401612C712CC4018F779927892B83
:106CB00019F4C301B20166D2F701418150E0542FAB
:106CC00044278081482BC301B201A0D26401F2E0C5
:106CD000CF0ED11CC6018F779927892B31F4B401CF
:106CE0006E57710980E090E06FD282E0E80EF11CEF
:106CF000AC14BD0409F4B4CF4601D3CF9C012F5F7F
:106D00003F4F20173107C0F0081B190B102F002729
:106D1000110FFE0131967F01C12CD12CF701619139
:106D20007F01C8018C0D9D1DA3D2FFEFCF1ADF0A92
:106D3000C11482E0D80691F7DE5F0FB6F894DEBF8B
:106D40000FBECDBFDF91CF911F910F91FF90EF90BC
:106D5000DF90CF90BF90AF909F908F907F906F907B
:106D60005F904F900895AF92BF92CF92DF92EF92D3
:106D7000FF920F931F93CF93DF93CDB7DEB7D2501F
:106D80000FB6F894DEBF0FBECDBF9E012F5F3F4F01
:106D9000790120E032E0F701A90111924150504001
:106DA000E1F783309105B8F4019708F58EE3E2E44A
:106DB000F2E0D70101900D928A95E1F785E5C15087
:106DC000DE4F8883CF5FD1408AEAC050DE4F888390
:106DD000C050D2408AC08330910591F580EAECE43E
:106DE000F1E0D70101900D928A95E1F77EC048EF5E
:106DF0005FE060E070E0C701D2DE4FEF5FE061E08E
:106E000070E0C701CCDE6091A6017091A70110E08F
:106E1000CB0101966C011C3011F0AC0102C04FEFA8
:106E20005FE0C701BCDE1F5FB6011D3089F76091CE
:106E3000E6017091E7014FEF5FE0C701B0DE55C09A
:106E40002091A6013091A7012150304C220F331F11
:106E5000220F331F8217930770F42091E6013091BF
:106E6000E7012150304C220F331F220F331F8217AE
:106E70009307E8F43AC0A9014D5C5F4F48175907E2
:106E800060F3FC01E21BF30B9F01322F2227330F2B
:106E9000AE014F5F5D4FD7012E193F09F901EA0F8F
:106EA000FB1FE491ED93A417B507C1F7D6CFA90155
:106EB0004F5F5F4F48175907C0F08C01021B130B3F
:106EC000102F0027110F5E01FFEFAF1AFDEFBF0A71
:106ED00067010E191F09C8018C0D9D1DC8D1F6014F
:106EE00081936F01EA15FB05B1F740E050E060E0E7
:106EF00072E0C701F2D18091E8008E778093E800BC
:106F0000DE5F0FB6F894DEBF0FBECDBFDF91CF912D
:106F10001F910F91FF90EF90DF90CF90BF90AF90B7
:026F20000895D2
:1070000055C00000B4C00000B2C00000B0C0000015
:10701000AEC00000ACC00000AAC00000A8C00000C4
:10702000A6C00000A4C000003EC30000F1C30000E1
:107030009EC000009CC000009AC0000098C00000E4
:1070400096C0000094C0000092C0000090C00000F4
:107050008FC000008CC000008AC0000088C0000003
:1070600086C0000084C0000082C0000080C0000014
:107070007EC000007CC000007AC0000078C0000024
:1070800076C0000074C0000072C0000070C0000034
:107090006EC000006CC000006AC0000068C0000044
:1070A00066C0000064C0000062C0000011241FBE62
:1070B000CFEFDAE0DEBFCDBF83E090E0BAD080FD55
:1070C00012C004B601FE0AC081E020918B0230910B
:1070D0008C0222343C4D19F080E001C081E094B76D
:1070E0009D7F94BF11C004B603FE0AC081E02091C9
:1070F0008B0230918C0222343C4D19F080E001C0AB
:1071000080E094B7977F94BF20E030E0F90145918B
:1071100054918823B9F04F3F5F4FA1F084B7877F28
:1071200084BF0FB6F894A895809160008861809321
:107130006000109260000FBE10928C0210928B02C1
:10714000F901099512E0A0E0B1E0E0E1FEE702C03C
:1071500005900D92A038B107D9F722E0A0E8B2E07F
:1071600001C01D92AB38B207E1F752DB4FC648CFE2
:107170001F920F920FB60F9211240F900FBE0F9017
:107180001F901895CF92DF92EF92FF926B017C01D6
:10719000B4DB8823A1F08FB7F89407B600FCFDCFCD
:1071A000F999FECF93E0F60190935700E89507B662
:1071B00000FCFDCF91E190935700E8958FBFFF90C1
:1071C000EF90DF90CF900895CF92DF92EF92FF92F1
:1071D0006B017C0192DB8823A1F08FB7F89407B68E
:1071E00000FCFDCFF999FECF95E0F6019093570092
:1071F000E89507B600FCFDCF91E190935700E89524
:107200008FBFFF90EF90DF90CF90089507B600FCFE
:10721000FDCFF999FECF21E0FB010A012093570031
:10722000E8951124089521E2FC01209357008491F0
:10723000089529E0FC012093570084910895E1E02E
:10724000F0E089E080935700849108959FB7F89407
:1072500007B600FCFDCFF999FECF809529E0E1E06B
:10726000F0E0082E20935700E8959FBF0895B4C51D
:10727000BBC5EF92FF920F931F93CF93DF937C01D7
:107280008B016115710521F0FB01C081D18102C024
:10729000C0E0D0E07ED1811119C0CE15DF05A8F481
:1072A0008091E80085FD0DC08091E8008E77809385
:1072B000E8000115110571F3F801D183C08385E061
:1072C00005C01092F1002196E8CF80E0DF91CF91C8
:1072D0001F910F91FF90EF900895CF92DF92EF9260
:1072E000FF920F931F93CF93DF93EC018B017A01F1
:1072F00050D1811132C0E114F10439F0F7018081DD
:107300009181081B190BC80FD91FC12CD12C011555
:10731000110511F18091E80085FD15C08091E8000C
:107320008E778093E800E114F10449F0F701808141
:107330009181C80ED91ED182C08285E00EC029D1AC
:10734000882329F30AC089918093F1000150110923
:10735000FFEFCF1ADF0ADBCF80E0DF91CF911F91E3
:107360000F91FF90EF90DF90CF900895CF92DF9232
:10737000EF92FF920F931F93CF93DF93EC018B015A
:107380007A0107D1811132C0E114F10439F0F7011B
:1073900080819181081B190BC80FD91FC12CD12CDA
:1073A0000115110511F18091E80085FD15C080914E
:1073B000E8008B778093E800E114F10449F0F701CD
:1073C00080819181C80ED91ED182C08285E00EC015
:1073D000E0D0882329F30AC08091F10089930150FD
:1073E0001109FFEFCF1ADF0ADBCF80E0DF91CF91E9
:1073F0001F910F91FF90EF90DF90CF900895209113
:10740000890230918A022617370748F06115710505
:1074100039F42091E8002E772093E80001C0B901EB
:10742000FC0120E06115710571F18EB38823E9F14B
:107430008530E9F18091E80083FD3BC08091E80050
:1074400082FD2DC08091E80080FFECCF2091F300F9
:107450008091F20090E0922B6115710551F0883017
:10746000910538F421912093F10061507109019642
:10747000F3CF21E0089709F020E08091E8008E77B3
:107480008093E800CFCF2111D0CF09C08EB38823DD
:1074900061F0853061F08091E80083FD0AC0809141
:1074A000E80082FFF3CF80E0089582E0089583E052
:1074B000089581E008958F708093E900EBEEF0E08D
:1074C000808181608083EDEEF0E010826093EC00BB
:1074D00040838091EE00881F8827881F08950F93AE
:1074E0001F93CF93DF93062FEC0110E0101771F17B
:1074F0006881611103C01F5F2596F8CF2C81A98197
:10750000BA819B81862F8F70873010F080E01FC07A
:10751000223010F442E001C046E0E8E0F0E020E074
:10752000EA17FB0720F42F5FEE0FFF1FF9CF22951C
:10753000207F422B50E4959F90011124661F6627FF
:10754000661F622BB8DF8111D6CFE0CF81E0DF91DB
:10755000CF911F910F9108958091830287FF0FC0F3
:107560008091E80082FD04C08EB38111F9CF10C074
:107570008091E8008B770AC08EB3882349F0809110
:10758000E80080FFF9CF8091E8008E778093E800D3
:1075900008952091E4003091E50095E64091EC00DB
:1075A000842F817040FF22C08091E80080FD1CC0C4
:1075B0008EB3882399F0853099F08091EB0085FD9A
:1075C00011C04091E4005091E5002417350731F3D4
:1075D000915011F09A01E2CF84E0089582E008957D
:1075E00083E0089581E0089580E008954091E800E7
:1075F00042FFDECF08950F931F93CF93DF9346D0C2
:107600004DD0C8EDD0E088818F77888388818068ED
:10761000888388818F7D888319BC1EBA109281026D
:1076200000EE10E0F80180818B7F8083888181608B
:10763000888342E060E080E03EDFE1EEF0E08081C0
:107640008E7F8083E2EEF0E08081816080838081A4
:1076500088608083F80180818E7F8083888180614B
:107660008883DF91CF911F910F910895E8EDF0E0AD
:1076700080818F7E8083E7EDF0E080818160808370
:1076800084E082BF81E080938202B5CFE8EDF0E034
:1076900080818E7F80831092E20008951092DA003C
:1076A0001092E10008951F920F920FB60F921124CD
:1076B0002F933F934F935F936F937F938F939F93FA
:1076C000AF93BF93EF93FF938091DA0080FF19C0CF
:1076D0008091D80080FF15C08091DA008E7F809362
:1076E000DA008091D90019BC80FF09C082E089BD11
:1076F00009B400FEFDCF81E08EBBDBD802C01EBA0C
:10770000D9D88091E10080FF17C08091E20080FF0E
:1077100013C08091E2008E7F8093E2008091E200AE
:1077200080618093E2008091D80080628093D800CD
:1077300019BC85E08EBBC2D18091E10084FF2DC0D1
:107740008091E20084FF29C019BC82E089BD09B4A0
:1077500000FEFDCF8091D8008F7D8093D80080916E
:10776000E1008F7E8093E1008091E2008F7E809324
:10777000E2008091E20081608093E20080918102CA
:10778000882311F084E007C08091E30087FD02C0E8
:1077900081E001C083E08EBB91D18091E10083FF45
:1077A00026C08091E20083FF22C08091E100877FA4
:1077B0008093E10082E08EBB109281028091E10013
:1077C0008E7F8093E1008091E2008E7F8093E200C3
:1077D0008091E20080618093E20042E060E080E01E
:1077E0006ADE8091F00088608093F00067D1FF919D
:1077F000EF91BF91AF919F918F917F916F915F9129
:107800004F913F912F910F900FBE0F901F901895A1
:107810001F920F920FB60F9211242F933F934F9305
:107820005F936F937F938F939F93AF93BF93CF9308
:10783000DF93EF93FF93C091E900CF708091EC004C
:10784000D82FD17080FDD0E81092E9008091F0002F
:10785000877F8093F00078941ED01092E900809189
:10786000F00088608093F000CD2BCF70C093E900CA
:10787000FF91EF91DF91CF91BF91AF919F918F9148
:107880007F916F915F914F913F912F910F900FBE1C
:107890000F901F9018951F93CF93DF9300D0CDB713
:1078A000DEB7E3E8F2E08BE892E02091F10021936B
:1078B0008E179F07D1F703D88091E80083FFEAC0B5
:1078C0008091830290918402953009F46FC030F466
:1078D000913071F168F0933059F1DCC0983009F4BF
:1078E000A9C0993009F4B5C0963009F0D3C07FC063
:1078F000803899F0823809F0CDC0809187028F706E
:10790000873008F0C7C08093E9008091EB0085FBC9
:10791000882780F91092E90001C080E09091E8008A
:10792000977F9093E8008093F1001092F1008DC052
:10793000282F2D7F09F0AEC0823009F0ABC08091B6
:10794000850281112AC0809187028F702FEF280F46
:10795000263008F09FC08093E9002091EB0020FFC3
:107960001CC0933021F48091EB00806214C0909190
:10797000EB0090619093EB0021E030E0A90102C0A0
:10798000440F551F8A95E2F74093EA001092EA00EF
:107990008091EB0088608093EB001092E900809169
:1079A000E800877F8093E800D7DD74C0811172C042
:1079B000109185021F778091E3008078812B80935E
:1079C000E3008091E800877F8093E800C5DD809127
:1079D000E80080FFFCCF8091E30080688093E300A3
:1079E000111102C082E001C083E08EBB53C08058F9
:1079F000823008F04FC06091870270918802AE011A
:107A00004F5F5F4F80918502909186020E9467349C
:107A1000BC01892B09F43EC09091E800977F9093B8
:107A2000E80089819A81EBDC8091E8008B77809374
:107A3000E80030C0803871F58091E800877F80933E
:107A4000E800809181028093F1008091E8008E77B8
:107A5000A9CF81111FC0809185029091860299273C
:107A60000297C4F48091E800877F8093E8008091BA
:107A700085028093810270DD80918102811106C0B0
:107A80008091E30087FD02C081E001C084E08EBBED
:107A90000E945B348091E80083FF0AC08091E80077
:107AA000877F8093E8008091EB0080628093EB00F9
:107AB0000F900F90DF91CF911F9108950895CF936C
:107AC0008EB3882399F0C091E900CF709091EC00BB
:107AD000892F817090FD80E8C82B1092E900809179
:107AE000E80083FDD8DECF70C093E900CF91089500
:107AF000CF93DF932091E80023FF38C0FC01208161
:107B000030E040918702509188024217530771F587
:107B1000209184022E3F81F02F3F41F52091830276
:107B2000213221F5EC018091E800877F8093E80005
:107B300013DD81E088AF1AC020918302213AB1F4AD
:107B40002091E800277F2093E8002091E80020FFA3
:107B5000FCCFFC01838581508093F1008091E80087
:107B60008E778093E800DF91CF91F6CCDF91CF91B3
:107B70000895CF93DF93EC01FC013C968DE2DF0189
:107B80001D928A95E9F782E08C83898761E0CE01B6
:107B90000196A5DC882331F061E0CE010696DF91E5
:107BA000CF919DCC80E0DF91CF910895EF92FF922D
:107BB0000F931F93CF93DF9300D0CDB7DEB72EB3D3
:107BC000243009F000C18C01FC0186818F70809304
:107BD000E9008091E80082FFBDC086818F708093AC
:107BE000E9001A8219827801FCE0EF0EF11CAE0167
:107BF0004F5F5F4F6FE070E0C701B8DBF801853081
:107C000021F480AD882399F3A5C084859585A68548
:107C1000B78585359345A244B34461F4F801918D4D
:107C20008385981738F4808D8F7121F4828D81506F
:107C3000803180F08091EB0080628093EB00F8014E
:107C400081818F708093E9008091EB008062809346
:107C5000EB0080C01A8219827801FBE1EF0EF11C63
:107C6000F801628D70E0AE014F5F5F4FC7017EDBB0
:107C7000853029F4F80180AD882391F36BC08091A1
:107C8000E8008B778093E800F801808D87FF04C0BF
:107C900081818F708093E900C8010E94633491E074
:107CA0009827F80197AB45E553E562E473E543A7F0
:107CB00054A765A776A7408951896289738947A728
:107CC00050AB61AB72AB448955896689778943AB08
:107CD00054AB65AB76AB811109C0452B462B472BC6
:107CE00029F08091EB0080628093EB00F80186819F
:107CF0008F708093E9008091EB00F80185FF04C04C
:107D000080AD8823C1F326C081818F708093E90004
:107D10008091EB0085FF05C0F80180AD8823C1F399
:107D200019C01A8219827801FBE2EF0EF11CAE0134
:107D30004F5F5F4F6DE070E0C701CFDA853029F407
:107D4000F80180AD882399F305C08091E8008E7713
:107D50008093E800F80180AD8823A9F126812F7077
:107D600081E090E0AC0102C0440F551F2A95E2F774
:107D70004093EA001092EA0021812F7001C0880F21
:107D80002A95EAF78093EA001092EA0086818F70C4
:107D90008093E9008091EB0080618093EB008091FB
:107DA000EB0088608093EB0081818F708093E90005
:107DB0008091EB0080618093EB008091EB00886004
:107DC0008093EB0010AE0F900F90DF91CF911F9139
:107DD0000F91FF90EF900895F999FECF92BD81BD6C
:107DE000F89A992780B50895262FF999FECF92BD6C
:107DF00081BDF89A019700B4021639F01FBA20BD70
:107E00000FB6F894FA9AF99A0FBE0895F894FFCF36
:107E10000100834000000104400000010100000057
:107E20000000000000000000000000000000000052
:107E30000000000000000000000000000000000042
:107E400000000000000000000000700000000000C2
:107E5000000A000000000000000000004C554641F0
:107E600020424F4F54202008000000000000000076
:107E70000000000000000000000000004146004C2F
:107E8000004100530048000F00262E004200490028
:107E90004E0000000000000000000000464C41536E
:107EA0004820202042494E00000000000000000051
:107EB000000020084E120200006800004145004505
:107EC00000500052004F000F00144D002E004200E1
:107ED00049004E00000000000000000045455052DF
:107EE0004F4D202042494E000000000000000000DD
:107EF000000020084E120F00FF03000009022000BE
:107F00000101008032090400000208065000070544
:107F1000830240000507050402400005120110011C
:107F200000000008EB034520010000000001008074
:107F300000021F0000004C55464100000000426F47
:107F40006F746C6F61646572000000000000302E79
:107F50003030EB3C906D6B646F736673000002040D
:107F600001000210005600F8010016000100000098
:107F7000000000000000000029785634124C5546DD
:107F80004120424F4F54202046415431322020207E
:107FA000F1C812C933C93FC944C949C94FC9089565
:087FB000089508950895089555
:107FE000DFCFDFCFDFCFDFCFDFCFDFCFDFCFDFCF21
:087FF000DFCFDFCFDFCFDFCFD1
:087FF8000070000030DFFBDC2B
:040000030000700089
:00000001FF
